:10000000FC7F0120D1340000B5340000B53400007D
:10001000B5340000B5340000B5340000B53400003C
:10002000B5340000B5340000B5340000B53400002C
:10003000B5340000B5340000B5340000B53400001C
:10004000B5340000B5340000B5340000B53400000C
:10005000B5340000B5340000B5340000B5340000FC
:10006000B5340000B5340000B5340000B5340000EC
:10007000B5340000B5340000B5340000B5340000DC
:10008000B5340000B5340000B5340000B5340000CC
:10009000B5340000B5340000B5340000B5340000BC
:1000A000B5340000B5340000B5340000B5340000AC
:1000B000B5340000B5340000B5340000B53400009C
:1000C000B5340000B5340000B5340000B53400008C
:1000D000B5340000B5340000B5340000B53400007C
:1000E000B5340000B5340000B5340000B53400006C
:1000F000B5340000B5340000B5340000B53400005C
:10010000B5340000B5340000B5340000B53400004B
:0C011000B5340000B5340000B534000028
:1034D0008EB000F01BF902210E20FFF795FF00F0DF
:1034E000F5FAFFF7EBFF00F0B1FA4FF000000B9098
:1034F0004EF20010FFF772FC4DF6FF47C0F26D0769
:103500007F1EFDD100BF00BF00BF00BF00BF012173
:103510006548FFF703FE10216448FFF73BFD0121DA
:1035200049B26348016001216248FFF733FD012180
:1035300049B26148016004216048FFF72BFD012179
:1035400049B25F4801605F4B872240F200015E484C
:10355000FFF736FDFFF7A6FC002149B2584801608D
:1035600040F65F17C0F200077F1EFDD100BF00BF0D
:1035700000BF00BF012149B25148016043F2FF572B
:10358000C0F26E1700BF00BF7F1EFDD100BF00BF9D
:103590001120FFF705FF43F2FF57C0F26E1700BF7F
:1035A00000BF7F1EFDD100BF00BFFFF7CDFD474923
:1035B000086800B1FBE740F27607C0F2000700BFE1
:1035C00000BF7F1EFDD100BF00BF00BF00BF0023B2
:1035D0009AB2132A0FD23E4880180D90ADF8002001
:1035E0000020FCF79BFDBDF800200D990870501CD1
:1035F00083B29AB2EDE70B984FF08242FDF74EF896
:103600000B903448006801B4334B344A03213048EE
:10361000FDF796FF01B0324908603248006801B4F6
:103620002D4B2E4A05212A48FDF78AFF01B02E496D
:10363000086002462D4901A804B402B401B4FFF7A2
:103640008FFC03B02A4901A8FFF73CFC0B9A2949DB
:1036500006A804B402B401B4FFF782FC03B006A9C3
:1036600001A8FFF72FFC01A8FFF75EFC2248FFF737
:103670005BFC2248006801B4174B184A0721144824
:10368000FDF75EFF01B01E4908601E48006801B4E6
:10369000114B124A09210E48FDF752FF01B01A4999
:1036A000086084E7FEE700BF007002400060004051
:1036B000907F0C4200600240807F4C4200400240FC
:1036C000887F48424838000020A10700807F4E4292
:1036D0000C000020200000200000A0410000164542
:1036E000300000202400002034000020443A000074
:1036F000000000203F3A00000200002028000020C7
:0C370000380000202C0000203C000020BD
:102DDC0082B0CDF800E00346214A22490A60224A1B
:102DEC0022490A60224A23490A60234A23490A607D
:102DFC0001932348FFF7D6FE019B012252B22149D1
:102E0C000A6000BF00BF00BFFFF7BAFEFFF726FF46
:102E1C0040F2E83100FB01F210461901914205D94C
:102E2C00012252B218490A605A0804E0002252B238
:102E3C0015490A601A46C100B1FBF2F1491C4B0856
:102E4C009A0912490A6003F03F0211490A60602294
:102E5C0010490A60FFF7F0FEDDF800E002B07047A1
:102E6C008106000054000020FFFFFFFF58000020E7
:102E7C00FFFFFFFF5C000020FFFFFFFF6000002052
:102E8C006C3700008020FC431406184224C000401C
:082E9C0028C000402CC00040DA
:102BB00081B0CDF800E040F2000B82460AF1D80166
:102BC00009788B4539D20C210BFB01F10AEB01018D
:102BD0008C460CF108010978A9B90CF108010978B3
:102BE000CCB20CF1060109888BB20CF10401097812
:102BF000CAB2DCF800100846D1B2002210B4FDF7CA
:102C00002FFE01B014E00CF108010978CCB20CF1F0
:102C1000060109888BB20CF104010978CAB2DCF80C
:102C200000100846D1B20F2210B4FDF719FE01B012
:102C30000BF1010B5FFA8BFBC0E7DDF800E001B0A0
:022C40007047DB
:1008600082B0CDF800E01FFA83F9CBB2D5B29DF883
:100870000870C54C00EA0404A0462046FFF76EFD50
:10088000C24CA54207D108F58066DD43EDB234685D
:100890002C40346007E0BE4CA54204D108F58065C9
:1008A0002C681C432C6040F2010409EA0404A4B241
:1008B0002CB108F5A2652C681C432C6006E008F5F5
:1008C000A266DD43EDB234682C40346040F202048D
:1008D00009EA0404A4B22CB108F214552C681C4394
:1008E0002C6006E008F21456DD43EDB234682C406B
:1008F000346040F2080409EA0404A4B22CB108F2FE
:100900000C552C681C432C6006E008F20C56DD43A5
:10091000EDB234682C40346040F2100409EA04045B
:10092000A4B22CB108F5A0652C681C432C6006E02D
:1009300008F5A066DD43EDB234682C40346040F227
:10094000200409EA0404A4B22CB108F204552C686E
:100950001C432C6006E008F20456DD43EDB2346817
:100960002C40346040F2400409EA0404A4B22CB1E3
:1009700008F5A1652C681C432C6006E008F5A1660B
:10098000DD43EDB234682C40346040F2800409EA63
:100990000404A4B274B140F2400409EA0404A4B20D
:1009A0002CB108F5A3652C681C432C6001E00120E4
:1009B000E6E006E008F5A366DD43EDB234682C40BE
:1009C000346040F2001409EA0404A4B22CB108F225
:1009D0001C552C681C432C6006E008F21C56DD43B5
:1009E000EDB234682C40346040F2002409EA04047B
:1009F000A4B2002C32D0674CA04540F2000500D0D4
:100A00000125654CA04540F2000400D0012425409A
:100A1000624CA04540F2000400D001242540604C07
:100A2000A04540F2000400D0012425405D4CA045C3
:100A300040F2000400D0012425405B4CA04540F268
:100A4000000400D0012405EA04040CB1012097E061
:100A500008F5A5652C681C432C6031E04D4CA04581
:100A600040F2000500D101254B4CA04540F20004A6
:100A700000D101242543494CA04540F2000400D197
:100A800001242543464CA04540F2000400D1012436
:100A90002543444CA04540F2000400D101242543E5
:100AA000414CA04540F2000400D1012445EA040471
:100AB00034B108F5A566DD43EDB234682C403460EE
:100AC00040F2004409EA0404A4B22CB108F584659C
:100AD0002C681C432C6006E008F58466DD43EDB20B
:100AE00034682C4034600FB9002049E00B2F01D945
:100AF000012045E0002100200191DAB2C3B2404656
:100B0000F9B2019F082B12D222FA03F4E4B204F0E6
:100B10000104E4B244B19D002DB24FF00F04AC408B
:100B200047EA04052F46FFE75B1CDBB2EAE700F269
:100B30002C56FD4334682C403460002600238DF889
:100B40000420CAB29DF80410082B13D221FA03F432
:100B5000E4B204F00104E4B24CB1D5B29C0024B27A
:100B600005FA04F446EA040425462E46FFE75B1C1A
:100B7000DBB2E9E700F22C552C6834432C600020EE
:100B8000DDF800E002B0704700F0FFFF0000000059
:100B90000100000000700040004002400050004092
:0C0BA00000B0054000C00540009005407A
:10035C0081B08A4900EA01010846F1E08849096840
:10036C0041F0010286490A6086490A686FF0010172
:10037C000A4084490A603FE18149096841F0010261
:10038C007F490A607F49096841F001027D490A6092
:10039C0032E17B49096841F0020279490A607949E6
:1003AC000A686FF002010A4076490A6024E1744938
:1003BC00096841F0020272490A607249096841F009
:1003CC00020270490A6017E16D49096841F00402A4
:1003DC006B490A606B490A686FF004010A4069496D
:1003EC000A6009E16649096841F0040264490A603F
:1003FC006449096841F0040262490A60FCE0604902
:10040C00096841F008025E490A605E490A686FF0AB
:10041C0008010A405B490A60EEE05949096841F05D
:10042C00080257490A605749096841F008025549C2
:10043C000A60E1E05249096841F0100250490A6033
:10044C0050490A686FF010010A404E490A60D3E027
:10045C004B49096841F0100249490A604949096849
:10046C0041F0100247490A60C6E04549096841F06D
:10047C00200243490A6043490A686FF020010A4090
:10048C0040490A60B8E03E49096841F020023C4905
:10049C000A603C49096841F020023A490A60ABE025
:1004AC003749096841F0400235490A6035490A6804
:1004BC006FF040010A4033490A609DE030490968F9
:1004CC0041F040022E490A602E49096841F0400271
:1004DC002C490A6090E02A49096841F080022849B9
:1004EC000A602849096801F07F0226490A6083E006
:1004FC002349096841F0800221490A6021490968B1
:10050C0041F080021F490A6076E01D49096841F4F8
:10051C0080721B490A601B490A686FF480710A409B
:10052C0018490A6068E01649096841F48072144958
:10053C000A601449096841F4807212490A605BE050
:10054C00B0F1402F3FF40AAF0F4988423FF414AF8B
:10055C000E4988423FF41DAF0D4988423FF427AF46
:10056C000C4988423FF430AF0B4988423FF43AAF14
:10057C000A4988423FF443AF00F012B800F0FFFF85
:10058C0008E10F406CE00F40008005400050004037
:10059C00009005400060004000A005400070004045
:1005AC00164988423FF439AF154988423FF442AFAF
:1005BC00144988423FF44CAF134988423FF455AF7D
:1005CC00124988423FF45FAF114988423FF468AF4B
:1005DC00104988423FF472AF0F4988423FF47BAF19
:1005EC000E4988423FF484AF0D4988423FF48DAFE9
:1005FC000C4988423FF497AF01B0704700B00540FA
:10060C000040024000C005400050024000D00540B0
:10061C000060024000E005400070024000F0054020
:08062C0000D00340000006406D
:102B8C0081B0002149B20448016004480160044846
:102B9C00016001B0704700BF0006184220061842C1
:042BAC0024061842A1
:0C2C680001480068704700BF48000020D1
:102C440081B0012149B2044801600448016004488C
:102C5400016001B0704700BF000618422006184208
:042C640024061842E8
:10311C0081B0CDF800E0002440F240031BB240F235
:10312C00001212B21A4393B2002210B4FDF792FBB4
:0A313C0001B0DDF800E001B07047BB
:102F940081B0CDF800E0002440F240031BB240F2BF
:102FA400001212B21A4393B2012210B4FDF756FC78
:0A2FB40001B0DDF800E001B0704745
:102FC00089B0CDF800E007901846ADF820200DF14B
:102FD000100B0BF10B0ADFF818C1FFF78DFDADF8F0
:102FE0000410FFF7E5FDBDF8041001256DB2414C5A
:102FF0002560414C206800256DB2404C2560404C56
:103000002160BDF820503F4C25603F4D3F4C25606E
:103010003F4D404C2560FFF727FE40F2E83400FBAF
:1030200004F5079CB5FBF4F4029429B9029C022C28
:1030300001DA0224029404E0029C0C2C01DA0C2434
:103040000294022109B2B1F1FF0F3BDA002212B261
:1030500010B2B0F5807F2DDA0DB2441C24B2654366
:10306000029C641B0394002C04DA039D4FF0FF3490
:103070006C43039410B9039C059404E0039D059CE4
:10308000AC4200DA16E0039D049CAC4202DC039CD7
:1030900004B105E0039C04948DF818108DF8190014
:1030A000049C1CB901248DF81A4003E0441C22B290
:1030B00010B2CEE79DF81A40012C00D102E0891C25
:1030C00009B2C0E79DF81850134C25609DF81940CF
:1030D00025022DB20B4C246844EA0505094C2560F5
:1030E00001256DB2054C2560DDF800E009B07047A0
:1030F000343A00009020FC4308E10F408400104265
:103100000480004000800040610100004C0000206D
:0C3110004510000050000020108000401E
:102AF80081B01CF8019B0BF8019BBBEB0A0FF8D1C6
:042B080001B0704761
:102EA400034904480160044904480160704700BFB5
:102EB400E12A0000400000201D0100004400002021
:002EC4000E
:1033A00081B0CDF800E0002252B215490A6040F227
:1033B0001707C0F2000700BF00BF7F1EFDD100BF8E
:1033C00000BF104C2468A04740F2EF07C0F200078E
:1033D0007F1EFDD100BF00BF00BF00BF012252B25F
:1033E00007490A6040F2EF07C0F2000700BF00BFC4
:1033F0007F1EFDD100BF00BFDDF800E001B07047C7
:08340000807F4C4240000020D7
:102AE00081B0CDF800E0034C2468A047DDF800E099
:082AF00001B070475000002006
:1010440081B0CDF800E0FFF789F8DDF800E001B0E9
:021054007047E3
:1001600081B005490860054A116801B9FBE70249F9
:10017000086801B0704700BF088000408801104245
:000180007F
:10066C0081B0CDF800E0FFF765FDDDF800E001B0EA
:02067C007047C5
:1001400081B005490860054A116801B9FBE7024919
:10015000086801B0704700BF089000408801124253
:000160009F
:1006800081B0044A116801B1FBE70349086001B079
:0C069000704700BF1403184200C0004077
:1006340081B0044A116801B1FBE70349086001B0C5
:0C064400704700BF14031A4200D00040B1
:1006500081B0044A116801B1FBE70349086001B0A9
:0C066000704700BF14031C4200E0004083
:1031480083B0CDF800E00120FFF708FD0620FFF767
:10315800D9FC0020FFF72AFE0120FFF713FE00200C
:10316800FFF7FEFD0120FFF793FD0120FFF77EFD2D
:103178000120FFF7A1FD0720FFF7C6FD0020FFF79C
:10318800AFFD0020FEF714F80320FDF7E7FF012349
:10319800002200210120FEF737F801230022002138
:1031A8000220FEF731F80123002200210320FEF758
:1031B8002BF80123002200210420FEF725F8022025
:1031C800FDF7A2FF0220FDF7ADFF0520FDF7B8FFD0
:1031D8000220FFF751FC0020FFF75CFC0120FFF7FD
:1031E80067FC082000F0D8F840F65F17C0F2000727
:1031F8007F1EFDD100BF00BF00BF00BF122000F03E
:10320800CBF8002149B25B48016040F21707C0F2D1
:1032180000077F1EFDD100BF00BF00BF00BF564999
:10322800086800B1FBE740F27607C0F2000700BF6C
:1032380000BF7F1EFDD100BF00BF00BF00BF00223E
:10324800132A0EDA4D48801802908DF804200020C9
:10325800FCF760FF9DF8042002990870521CD2B256
:10326800EEE74FF0000001B4454B464A03214348BE
:10327800FEF762F901B0444908604FF0000001B45C
:103288003F4B404A05213D48FEF756F901B03F49FA
:1032980008604FF0000001B4394B3A4A072137481B
:1032A800FEF74AF901B03A4908604FF0000001B44E
:1032B800334B344A09213148FEF73EF901B035490C
:1032C8000860012149B22B48016040F2EF07C0F2C3
:1032D80000077F1EFDD100BF00BF00BF00BF0A204E
:1032E80000F05AF840F65F17C0F2000700BF00BFB1
:1032F8007F1EFDD100BF00BF112000F04DF8002354
:10330800062200210120FDF77FFF0023062200216D
:103318000220FDF779FF0023062200210320FDF794
:1033280073FF0423062200210420FDF76DFF082007
:1033380000F032F840F65F17C0F2000700BF00BF88
:103348007F1EFDD100BF00BF102000F025F800212E
:1033580049B20848016040F21707C0F2000700BFF1
:1033680000BF7F1EFDD100BF00BFDDF800E003B045
:10337800704700BF807F4C42807F4E420C00002087
:103388000000A04100001645200000202400002075
:08339800280000202C00002099
:102B640081B0CDF800E028B1002205210120FEF754
:102B74003BF804E0012205210120FEF735F8DDF8D9
:062B840000E001B0704703
:100BEC0085B0CDF800E004AB8DF804208DF808102A
:100BFC008DF80C0001221946FFF720FB9DF80C0024
:100C0C009DF808109DF80420012A0AD101231BB27B
:100C1C0003FA01F424B29DF8103023438DF8103000
:100C2C000BE052B901231BB28B401BB2DC4324B244
:100C3C009DF8103023408DF8103004AB012219467A
:0C0C4C00FFF798FADDF800E005B07047F3
:1002480084B0CDF800E08DF80C201F2802D9FF20DB
:1002580040B254E09DF80C301F2B02D9FF2040B269
:100268004DE0029101AD20232B702B7803432B70B6
:100278006C1C002323706D1C2C789DF80C3044EA0C
:1002880003032B700020FFF751FF45F6BF57C0F25C
:1002980000077F1EFDD100BF00BF00BF00BF01AB3C
:1002A8001B78DCB2A0B2184C2468A04701AB5B1CD9
:1002B8001B78DCB2A0B2144C2468A0474DF2BE47AC
:1002C800C0F2010700BF00BF7F1EFDD100BF00BF05
:1002D80000BF00BF9DF80C409DF80C305B1E8DF8E8
:1002E8000C304CB10020094C2468A047029B1870C0
:1002F800029B5B1C0293EDE70120FFF717FFDDF877
:1003080000E004B0704700BF400000204400002017
:00031800E5
:10011C0081B0CDF800E0034C2468A047DDF800E086
:08012C0001B070474C000020F7
:0C01340001490860704700BF807F4C420A
:1001800084B0CDF800E08DF80C201F2802D9FF20A4
:1001900040B253E09DF80C301F2B02D9FF2040B233
:1001A0004CE0029101AD40232B702B7803432B7060
:1001B0006C1C002323706D1C2C789DF80C3044EAD5
:1001C00003032B700020FFF7B5FF45F6BF57C0F2C1
:1001D00000077F1EFDD100BF00BF00BF00BF01AB05
:1001E0001B78DCB2A0B2174C2468A04701AB5B1CA3
:1001F0001B78DCB2A0B2134C2468A0479DF80C40D9
:100200009DF80C305B1E8DF80C3054B1029B1B78AE
:10021000DCB2A0B20B4C2468A047029B5B1C02938B
:10022000ECE74AF67F17C0F203077F1EFDD100BF3F
:1002300000BF00BF00BF0120FFF77CFFDDF800E03A
:0802400004B0704740000020EB
:102B0C0083B0CDF800E000218DF80810072802D919
:102B1C00FF2040B21CE002A98DF804000122012024
:102B2C00FDF78CFB9DF804009DF808204FF6F8711A
:102B3C0009B202EA01018DF80810C9B201438DF8FF
:102B4C00081002A901220120FDF714FB002040B25D
:082B5C00DDF800E003B0704752
:102DB40081B0CDF800E0012802D9FF2040B206E03E
:102DC400C2B204210220FDF70FFF002040B2DDF85B
:062DD40000E001B07047B1
:102D8C0081B0CDF800E028B1012207210320FDF726
:102D9C0027FF04E0002207210320FDF721FFDDF8C7
:062DAC0000E001B07047D9
:102D680081B0CDF800E0012802D9FF2040B204E08C
:102D7800C2B205210320FDF735FFDDF800E001B000
:022D8800704792
:102C980081B0CDF800E028B1002204210320FDF71F
:102CA800A1FF04E0002204210320FDF79BFFDDF8CB
:062CB80000E001B07047CE
:102C740081B0CDF800E0012802D9FF2040B204E081
:102C8400C2B203210320FDF7AFFFDDF800E001B07D
:022C9400704787
:102CC00081B0CDF800E028B1012202210320FDF7F8
:102CD0008DFF04E0002202210320FDF787FFDDF8CD
:062CE00000E001B07047A6
:102D100083B0CDF800E000218DF80810072802D913
:102D2000FF2040B21CE002A98DF80400012204201B
:102D3000FDF78AFA9DF804009DF8081001F01F02C3
:102D4000D2B28DF80820410189B242EA01018DF822
:102D5000081002A901220420FDF712FA002040B257
:082D6000DDF800E003B070474C
:102CE80081B0CDF800E028B1002204210420FDF7CE
:102CF80079FF04E0012204210420FDF773FFDDF8C9
:062D080000E001B070477D
:1011B80083B0CDF800E000218DF80810032802D98B
:1011C800FF2040B21CE002A98DF80400012204208F
:1011D800FFF736F89DF804009DF808204FF6F371E4
:1011E80009B202EA01018DF80810820092B2C9B270
:1011F80011438DF8081002A901220420FEF7BCFF54
:08120800DDF800E003B07047BF
:1011640083B0CDF800E000218DF80810032802D9DF
:10117400FF2040B21AE002A98DF8040001220420E5
:10118400FFF760F89DF804009DF808204FF6FC7105
:1011940009B202EA01018DF80810C9B201438DF8C1
:1011A400081002A901220420FEF7E8FFDDF800E0A0
:0411B40003B07047CD
:1012100083B0CDF800E08DF80420DAB2C3B29DF8B7
:10122000040000248DF8084062E1072802D9FF205D
:1012300040B274E1072A02D9FF2040B26FE10501F4
:10124000ADB29DF808402C438DF80840E4B2144339
:101250008DF8084031B19DF8084044F080048DF8C5
:10126000084005E09DF8084004F07F048DF8084030
:1012700002AC012221460520FEF782FF002040B289
:101280004DE10F2802D9FF2040B248E10F2A02D9D0
:10129000FF2040B243E131B19DF8084044F08004A2
:1012A0008DF8084005E09DF8084004F07F048DF8B3
:1012B00008400501ADB29DF808402C438DF8084068
:1012C000E4B214438DF8084002AC01222146062006
:1012D000FEF756FF002040B221E10F2802D9FF207F
:1012E00040B21CE10F2A02D9FF2040B217E131B110
:1012F0009DF8084044F080048DF8084005E09DF812
:10130000084004F07F048DF808400501ADB29DF857
:1013100008402C438DF80840E4B214438DF808408F
:1013200002AC012221460720FEF72AFF002040B22E
:10133000F5E00F2802D9FF2040B2F0E00F2A02D9D1
:10134000FF2040B2EBE031B19DF8084044F080044A
:101350008DF8084005E09DF8084004F07F048DF802
:1013600008400501ADB29DF808402C438DF80840B7
:10137000E4B214438DF8084002AC01222146082053
:10138000FEF7FEFE002040B2C9E00F2802D9FF2080
:1013900040B2C4E00F2A02D9FF2040B2BFE031B111
:1013A0009DF8084044F080048DF8084005E09DF861
:1013B000084004F07F048DF808400501ADB29DF8A7
:1013C00008402C438DF80840E4B214438DF80840DF
:1013D00002AC012221460920FEF7D2FE002040B2D5
:1013E0009DE00F2802D9FF2040B298E00F2A02D9D1
:1013F000FF2040B293E031B19DF8084044F08004F2
:101400008DF8084005E09DF8084004F07F048DF851
:1014100008400501ADB29DF808402C438DF8084006
:10142000E4B214438DF8084002AC012221460A20A0
:10143000FEF7A6FE002040B271E00F2802D9FF207F
:1014400040B26CE00F2A02D9FF2040B267E031B110
:101450009DF8084044F080048DF8084005E09DF8B0
:10146000084004F07F048DF808400501ADB29DF8F6
:1014700008402C438DF80840E4B214438DF808402E
:1014800002AC012221460B20FEF77AFE002040B27A
:1014900045E00F2802D9FF2040B240E00F2A02D9D0
:1014A000FF2040B23BE031B19DF8084044F0800499
:1014B0008DF8084005E09DF8084004F07F048DF8A1
:1014C00008400501ADB29DF808402C438DF8084056
:1014D000E4B214438DF8084002AC012221460C20EE
:1014E000FEF74EFE002040B219E0FF2040B216E0A9
:1014F000012B3FF49AAE022B3FF4C3AE032B3FF413
:10150000ECAE042B3FF415AF052B3FF43EAF062B9A
:101510003FF467AF072B90D0082BBAD0E5E7DDF892
:0615200000E003B070477B
:1011100082B0CDF800E08DF8040001A901220D2075
:0C112000FFF72EF8DDF800E002B0704789
:10112C0082B0CDF800E08DF8040001A901220E2058
:0C113C00FFF720F8DDF800E002B070477B
:1011480082B0CDF800E08DF8040001A901220F203B
:0C115800FFF712F8DDF800E002B070476D
:102A800082B0CDF800E08DF8040001A901221020E9
:0C2A9000FDF776FBDDF800E002B07047B7
:102A9C0082B0CDF800E08DF8040001A901221120CC
:0C2AAC00FDF768FBDDF800E002B07047A9
:102AB80081B0CDF800E028B1012201211720FEF7EE
:102AC80091F804E0002201211720FEF78BF8DDF8C9
:062AD80000E001B07047B0
:1015400082B0CDF800E098461346DDF808904418C4
:101550002478E2B215022DB24C1C24B2041924786E
:1015600045EA040424B220B2FFF720FB04460194AC
:10157000084A1846FFF714FD019AFFF783FD42461B
:10158000FFF70EFD4A46FFF789FCDDF800E002B0E8
:08159000704700BF00FEFF469A
:100BAC0081B0002808BF19E006B554BF0146D0F14A
:100BBC0000014FF09E0202D4521E4900FCD5803138
:100BCC002CBF521C49004FEA512141EAC251002866
:100BDC004CBF41F000400846BDE8064001B07047EC
:000BEC0009
:100FA00081B0FAB590EA02064CBF4FF000464FF010
:100FB0000006010243001B0E12BF41F000414FF03A
:100FC00000003BE0FF2B35D05FEA02245FEA4205D8
:100FD0005FEA156511BF44F000444FF0FF40304315
:100FE0002CE0FF2D26D05B1B002020276408490839
:100FF000A14240EB000028BF091B7F1E04D000293E
:1010000018BF4900F4D1B84010F0004F04BF4000B1
:10101000B3F1010380302CBF5B1C40007F33DCBF89
:101020004FF000000AE0FF2B04D2400A40EAC35010
:10103000304303E0FF27FF0556EA0700BDE8FA400A
:0410400001B0704744
:1010840081B0FAB590EA02064CBF4FF000464FF02B
:1010940000064FEA00214FEA40031B0E12BF41F045
:1010A40000414FF000002CE0FF2B26D04FEA022431
:1010B4004FEA42052D0E12BF44F000444FF00000E9
:1010C4001FE0FF2D19D05B19A1FB0454002C5CBF59
:1010D40064005B1E803424BF5B1C64087E3BDCBF61
:1010E4004FF000000DE0FF2B07D24FEA142030F43C
:1010F400000040EAC350304303E0FF27FF0546EAFF
:0A1104000700BDE8FA4001B0704793
:100E9C0081B082F000422DE9FA414FEA02244FEA78
:100EAC0042052D0E04D1002C18BF4FF000006CE051
:100EBC0044F00044FF2D5FD04FEA9404002A48BF51
:100ECC0064424FEA00214FEA40031B0E05D1002972
:100EDC0014BF4FF00000104657E041F00041FF2BCB
:100EEC004BD04FEA9101002848BF49425E1B41BFDD
:100EFC000F4621463C46764248BF2B46192E47BF2B
:100F0C0044FA06F7C9194FF0000803E0C6F11C07B4
:100F1C0004FA07F8002904BF4FF0000035E046BF83
:100F2C0049424FF001074FF00007A3F101034900BC
:100F3C00FBD511F080040DD001F0200548EA05081E
:100F4C00803128BF5B1C01F0400458EA040808BF3C
:100F5C0021F480719B1CDCBF4FF0000015E0FF2BCF
:100F6C000DD221F0FF014FEA41014FEA512040EA36
:100F7C00C35040EAC77008E010464FEAD0774FEAFA
:100F8C00C777FF204FEAC0503843BDE8FA4101B0A3
:020F9C0070479C
:102F600082B0CDF800E0DDF808A00398039001A935
:102F700003A8001D08600A4603995046FEF70CFBA3
:102F800002B20AEB00010020087010B2DDF800E088
:042F900002B07047D4
:101598008FB0CDF800E00B910C9240F20003ADF84B
:1015A800283002460B9C0B9B5B1C0B9323788DF811
:1015B8001230002B01F051829DF81230252B0AD0F1
:1015C8009DF812301370501CBDF928305B1CADF823
:1015D80028300246E6E700231BB2ADF8143000239A
:1015E800ADF8163031E0BDF8163043F00803ADF819
:1015F80016300B9B5B1C0B933CE0BDF8163043F098
:101608000103ADF816300B9B5B1C0B9332E0BDF861
:10161800163043F00203ADF816300B9B5B1C0B939E
:1016280028E0BDF8163043F40063ADF816300B9B84
:101638005B1C0B931EE0BDF8163043F00403ADF8B5
:1016480016300B9B5B1C0B9314E00B9B1B782D2B0C
:10165800C9D00B9B1B78202BCFD00B9B1B782B2B37
:10166800D5D00B9B1B78232BDBD00B9B1B78302B07
:10167800E1D000E0B6E7BDF8163003F002039BB2F4
:101688003BB1BDF816404FF6FE7304EA0303ADF80C
:101698001630BDF8163003F008039BB23BB1BDF815
:1016A80016404FF6FB7304EA0303ADF816300B9BA4
:1016B8001B78D8B2FFF700FBE8B100231BB2ADF8E6
:1016C80014301546FFE7BDF914400A231BB25C43EA
:1016D80024B20B9B1B78E3181BB2303BADF81430D7
:1016E8000B9B5B1C0B931B78D8B2FFF7E5FA00281D
:1016F800E9D12F4610E00B9B1B782A2B0BD10C9BB2
:101708001D682C1D0C9B1C60B5F90030ADF8143019
:101718000B9B5B1C0B9317460B9B1B782E2B31D115
:101728000B9B5B1C0B931B782A2B0DD10C9B1D6804
:101738002C1D0C9B1C60B5F90030ADF810300B9BCC
:101748005B1C0B93BC461CE000231BB2ADF81030A9
:101758003A460B9B1B78D8B2FFF7AEFA80B1BDF9B9
:1017680010400A231BB25C4324B20B9B1B78E3187E
:101778001BB2303BADF810300B9B5B1C0B93E8E7BA
:1017880094460AE000231BB2ADF81030BDF81630BD
:1017980043F48053ADF81630BC460B9C0B9B5B1C86
:1017A8000B9323788DF81230D9E0BDF9280001F0A9
:1017B80056B9BDF8163043F01003ADF81630ECE713
:1017C800BDF8163043F48063ADF8163016E1BDF865
:1017D800163043F02003ADF81630BDF8163043F448
:1017E8008073ADF8163009E1BDF8163043F4007384
:1017F800ADF8163002E1BDF8163043F04003ADF8FD
:101808001630FBE0FAE0BDF8163043F02003ADF8DF
:101818001630BDF8163043F08003ADF81630EDE011
:101828000C9B1D682C1D0C9B1C602B6808930BB926
:10183800FA4B08930023ADF824306546BDF82440E0
:10184800089B1B191B782BB1BDF824305B1CADF825
:101858002430F3E72F46BDF910304BB1BDF82440D2
:10186800BDF91030A34203D2BDF91030ADF82430D1
:10187800BDF82440BDF91430A34207D9BDF824406F
:10188800BDF914301B1BADF8143003E000231BB264
:10189800ADF81430BDF8163003F008039BB29BB9BD
:1018A8003E46BDF91440BDF914305B1EADF8143046
:1018B8004CB120233370771CBDF928305B1CADF880
:1018C80028303E46EDE700E03E46BDF82440BDF82E
:1018D80024305B1EADF824306CB1089B1B78337044
:1018E800701C089B5B1C0893BDF928305B1CADF885
:1018F80028300646E9E7BDF8163003F008039BB226
:101908009BB13246BDF91440BDF914305B1EADF8E9
:1019180014304CB120231370561CBDF928305B1CC1
:10192800ADF828303246EDE700E032463AE60C9B47
:101938001D682C1D0C9B1C60B5F900308DF8123009
:101948000DF1120308930123ADF82430674682E7AE
:10195800BDF8163043F0C003ADF816304EE09DF8E0
:101968001230002B3FF421AF9DF812306C2B3FF45E
:1019780020AF9DF812304C2B3FF41BAF9DF812306E
:10198800662B3FF41DAF9DF81230452B3FF41FAF77
:101998009DF81230652B3FF420AF9DF81230672B6D
:1019A8003FF422AF9DF812306F2B3FF424AF9DF81F
:1019B8001230642B3FF426AF9DF81230692B3FF4A8
:1019C80021AF9DF81230702B3FF41DAF9DF81230F7
:1019D800582B3FF418AF9DF81230782B3FF419AF0D
:1019E8009DF81230732B3FF41BAF9DF81230632B18
:1019F8009DD09DF81230752BAAD0A1E7BDF81630FE
:101A080003F4E0639BB2002B00F07A85BDF8163032
:101A180003F480539BB21BB106231BB2ADF8103000
:101A28000C9B1D682C1D0C9B1C602A6806924FF0AD
:101A38000000FFF70DF940F2000000DD012048B179
:101A4800069B83F000430693BDF8163043F003036A
:101A5800ADF8163000231BB2ADF81C30069A4FF0D3
:101A68000000FFF7F5F840F2000000D00120002840
:101A780049D007AC06AB1B68DB0D03F0FF037E3BC8
:101A88002380BDF91C305C1E24B2ADF81C40032332
:101A98001BB25C4324B2ADF81C400A231BB294FB72
:101AA800F3F31BB2ADF81C30002B04DABDF91C307F
:101AB8005B1EADF81C30BDF91C305B4258B2FFF715
:101AC8002BF9069AFFF7DAFA0890089A4FF07E5039
:101AD800FFF7BEF840F2000000DD012028B1BDF993
:101AE8001C305B1EADF81C300DE0089A4C48FFF71F
:101AF800AFF840F2000000DC012020B1BDF91C3035
:101B08005B1CADF81C30BDF91C30002B03DC012335
:101B18008DF8123003E0BDF91C308DF81230BDF895
:101B2800163003F480739BB2A3B9BDF8163003F4E2
:101B380000739BB26BB1BDF91C406FF003039C426C
:101B480006DBBDF91040BDF91C30A34200DA00E005
:101B580000E07BE2BDF9103053B1BDF8163003F454
:101B680000739BB223B1BDF910305B1EADF8103085
:101B7800BDF81030082B03D908238DF8123003E084
:101B8800BDF910308DF81230069A4FF00000FFF7BB
:101B98005FF840F2000000D00120002864D0BDF9B1
:101BA8001C00FFF7B9F80D900D9A0698FFF7F4F9A5
:101BB80006909DF812305B4258B2FFF7ADF80D90D1
:101BC8000D9A0698FFF7E8F90690FFF781F8FFF7F6
:101BD8003FFA0D900D9A0698FFF75CF94FF07C528A
:101BE800FFF736F840F2000000DB012028B1069824
:101BF8004FF07C52FEF74EFD06900698FFF768F806
:101C08009DF812305B1C1BB29C00064B1B191B680D
:101C1800984214D3069A044800F008B8050000203A
:101C280000002041BC390000CDCCCC3DFFF726FA9E
:101C38000690BDF91C305B1CADF81C3014E006980A
:101C4800FFF746F89DF812309C00FA4B1B191B68E9
:101C5800984209D2069AF848FFF710FA0690BDF99B
:101C68001C305B1EADF81C30BDF8163003F4007351
:101C78009BB2002B43D0BDF8163003F400639BB22F
:101C8800002B3ED1BDF910300A2B03DD0A231BB20D
:101C9800ADF810300698FFF71BF808906146089BCE
:101CA8008BB1089D0A24B5FBF4F304FB135353B915
:101CB800BDF910305B1EADF81030089C0A23B4FB48
:101CC800F3F30893EBE79DF81240BDF91030A342F7
:101CD80013DABDF910409DF812301B1B019158B260
:101CE800FFF71AF80D900D9A0698FFF755F9019924
:101CF8000690BDF910308DF812300E4600E06646A9
:101D080000E06646BDF910305C1D24B2BDF9143000
:101D18001B1BADF81430BDF9103033B9BDF81630BF
:101D280003F400639BB203B904E0BDF914305B1EF1
:101D3800ADF81430BDF8163003F003039BB223B19D
:101D4800BDF914305B1EADF81430BDF8163003F041
:101D580004039BB2002B45D0BDF8163003F00203F4
:101D68009BB2B3B1BDF8163003F001039BB21BB1AF
:101D78002D238DF8083002E02B238DF808309DF8CC
:101D880008303370771CBDF928305B1CADF828305B
:101D980010E0BDF8163003F001039BB24BB12023CD
:101DA8003370701CBDF928305B1CADF8283007462D
:101DB80000E03746BB46BDF91430002B10DD302358
:101DC8008BF800300BF10107BDF928305B1CADF82A
:101DD8002830BDF914305B1EADF81430BB46EAE775
:101DE8005D464DE0BDF8163003F008039BB2B3B969
:101DF8003246BDF91430002B0FDD20231370531C1D
:101E08001E46BDF928305B1CADF82830BDF91430EA
:101E18005B1EADF814303246EBE7114600E0314660
:101E2800BDF8163003F002039BB2BBB1BDF8163003
:101E380003F001039BB21BB12D238DF8093002E09A
:101E48002B238DF809309DF809300B7001F1010B37
:101E5800BDF928305B1CADF8283010E0BDF816300D
:101E680003F001039BB24BB120230B70481CBDF952
:101E780028305B1CADF82830834600E08B465D4671
:101E88000698FEF725FF08909DF812309C00694BD4
:101E98001B191C68089BB3FBF4F330332B70681CC8
:101EA800BDF928305B1CADF82830BDF9103033B9C6
:101EB800BDF8163003F400639BB203B945E02E2346
:101EC800037000F10109BDF928305B1CADF828301A
:101ED8009DF81240BDF910301B1BADF810309DF86D
:101EE8001230EBB19DF812305B1EDBB28DF8123068
:101EF8009C00504B1B191C68089BB3FBF4F50A2483
:101F0800B5FBF4F304FB1353303389F8003009F1BF
:101F18000100BDF928305B1CADF828308146DEE7AA
:101F2800BDF9103083B1302389F8003009F1010080
:101F3800BDF928305B1CADF82830BDF910305B1EA8
:101F4800ADF810308146EBE74846BDF8163003F08F
:101F580020039BB24BB145230370451CBDF92830C3
:101F68005B1CADF82830284608E065230370451C43
:101F7800BDF928305B1CADF828302846BDF91C3067
:101F8800002B0FDABDF91C305B42ADF81C302D2355
:101F9800037000F10108BDF928305B1CADF828304A
:101FA800404609E02B230370431C9846BDF92830AE
:101FB8005B1CADF828304046BDF91C400A231BB213
:101FC80094FBF3F31BB230330370461C3046BDF963
:101FD80028305B1CADF82830BDF91C500A2424B207
:101FE80095FBF4F304FB13531BB230333370441CDA
:101FF800BDF928305B1CADF82830BDF8163003F069
:1020080008039BB2EBB1BDF91430002B1BDD204651
:10201800FFE720230370401CBDF928305B1CADF896
:102028002830BDF914305B1E1BB2ADF81430002BFC
:1020380000F004B8BC39000000002041E9D1024694
:1020480000E0224600E02246FFF7ACBABDF81630A1
:1020580003F400739BB2002B5CD0BDF91C30002B3D
:1020680008DABDF91C305C1E24B2BDF910301B1B08
:10207800ADF810300698FEF72BFE089001238DF876
:1020880012309DF812300A2B0FD09DF812309C00A8
:10209800F84B1B191C68089BA34200D205E09DF869
:1020A80012305B1C8DF81230EBE79DF81240BDF939
:1020B80010301B1BADF810300898FEF7C9FF0D90C3
:1020C8000D9A0698FEF7E6FE0E90BDF91000FEF791
:1020D80023FE0E9AFEF7D2FF4FF07C52FEF7DAFA93
:1020E800FEF7F6FD0890BDF910308BB1089D0A2463
:1020F800B5FBF4F304FB135353B9089C0A23B4FB50
:10210800F3F30893BDF910305B1EADF81030EAE721
:10211800E14600E0E146BDF910300C2B07DCBDF9C3
:102128001000FEF737FB069AFEF7B4FA0690069AF7
:102138004FF00000FEF78CFD40F2000000D00120B7
:10214800002833D00698FEF7C3FD78BBBDF91C30D4
:10215800012B2BDDBDF91C00FEF7DEFD0D900D9A5D
:102168000698FEF719FFC44AFEF772FD40F2000018
:1021780000DA012028B1BDF91C30093BADF81C304C
:1021880004E0BDF91C30083BADF81C30BDF91C005B
:10219800FEF7C2FD0D900D9A0698FEF7FDFEFEF7BC
:1021A80097FD08904FF00003069310E00698FEF79D
:1021B8008FFD08900898FEF74BFF0D900D9A069832
:1021C800FEF768FE069000231BB2ADF81C30012311
:1021D8008DF812304F469DF812300A2B0FD09DF81B
:1021E80012309C00A34B1B191C68089BA34200D209
:1021F80005E09DF812305B1C8DF81230EBE79DF876
:102208001240BDF910301C1924B2BDF91C30E41875
:1022180024B2BDF914301B1BADF81430BDF81630CC
:1022280003F400639BB21BB9BDF9103003B904E095
:10223800BDF914305B1EADF81430BDF8163003F04C
:1022480003039BB223B1BDF914305B1EADF8143003
:10225800BDF8163003F004039BB2002B41D0BDF843
:10226800163003F002039BB2B3B1BDF8163003F089
:1022780001039BB21BB12D238DF80A3002E02B23FA
:102288008DF80A309DF80A303B707F1CBDF9283064
:102298005B1CADF828300FE0BDF8163003F00103E1
:1022A8009BB24BB120233B707E1CBDF928305B1CD0
:1022B800ADF828303746FFE73A46BDF91430002B11
:1022C8000EDD30231370571CBDF928305B1CADF8A8
:1022D8002830BDF914305B1EADF814303A46ECE7EF
:1022E8004BE0BDF8163003F008039BB2A3B938469B
:1022F800BDF91430002B0EDD20230370471CBDF9F7
:1023080028305B1CADF82830BDF914305B1EADF8E1
:1023180014303846ECE700E03846BDF8163003F0D4
:1023280002039BB2BBB1BDF8163003F001039BB2A8
:102338001BB12D238DF80B3002E02B238DF80B30C9
:102348009DF80B300370461CBDF928305B1CADF8B6
:102358002830324611E0BDF8163003F001039BB275
:102368004BB120230370411CBDF928305B1CADF82C
:1023780028300E4600E0064632469DF812409DF889
:1023880012305B1E8DF81230BCB19DF812309C00E3
:10239800384B1B191C68089BB3FBF4F50A24B5FBE2
:1023A800F4F304FB135330331370501CBDF9283079
:1023B8005B1CADF828300246DFE71046BDF91C303B
:1023C800002B0EDD30230370421CBDF928305B1C46
:1023D800ADF82830BDF91C305B1EADF81C30104636
:1023E800ECE7BDF91030082B03DD08238DF8123017
:1023F80003E0BDF910308DF812309DF81240BDF998
:1024080010301B1BADF810309DF812303BB9BDF8E9
:10241800163003F400639BB20BB9814608E02E2303
:102428000370441CBDF928305B1CADF82830A14668
:102438009DF81200FEF770FC069AFEF71FFEFDF7E6
:1024480067FF08904F469DF8123013B39DF812307D
:102458005B1EDBB28DF812309C00064B1B191C6802
:10246800089BB3FBF4F50A24B5FBF4F304FB135300
:1024780000F004B8BC3900005F70894030333B700D
:1024880007F10109BDF928305B1CADF828304F462B
:10249800D9E73A46BDF9103073B130231370571C91
:1024A800BDF928305B1CADF82830BDF910305B1E33
:1024B800ADF810303A46EDE7BDF8163003F00803E2
:1024C8009BB2C3B1BDF91430002B17DD104600E0F4
:1024D800284620230370451CBDF928305B1CADF845
:1024E8002830BDF914305B1E1BB2ADF81430002B38
:1024F800EED12B4600E013461A46FFE7FFF752B825
:10250800BDF8163003F0C0039BB213BBBDF81630FC
:1025180003F010039BB23BB10C9B1D682C1D0C9B58
:102528001C602B68089307E00C9B1D682C1D0C9BF6
:102538001C60B5F900300893089B002B08DABDF839
:10254800163043F00303ADF81630089B5B4208933E
:1025580014E0BDF8163003F010039BB23BB10C9B9E
:102568001D682C1D0C9B1C602B68089306E00C9BB7
:102578001D682C1D0C9B1C602B880893BDF910301E
:1025880033B9089B23B9BDF910305B1CADF8103086
:10259800BDF8163003F0C003DDB24AE001238DF820
:1025A800123067469DF812300A2B0FD09DF8123072
:1025B8009C00F84B1B191C68089BA34200D205E03D
:1025C8009DF812305B1C8DF81230EBE73AE00123DE
:1025D8008DF8123067469DF81230082B0FD09DF801
:1025E80012309C00EC4B1B191C68089BA34200D2BC
:1025F80005E09DF812305B1C8DF81230EBE721E006
:1026080001238DF8123067469DF812300C2B0FD03D
:102618009DF812309C00E14B1B191C68089BA342D3
:1026280000D205E09DF812305B1C8DF81230EBE704
:1026380008E0002DB2D0C02DB0D0802DC7D0402DDD
:10264800DED06746BDF910409DF81230A34204DA87
:10265800BDF910308DF8123009E09DF81240BDF92F
:102668001030A34203DA9DF81230ADF81030BDF9EE
:10267800143053B1BDF8163003F003039BB223B1F5
:10268800BDF914305B1EADF81430BDF91040BDF92A
:102698001430A34207DDBDF91040BDF914301B1BEF
:1026A800ADF8143003E000231BB2ADF81430BDF8C8
:1026B800164040F6C40304EA03039BB2B3F5046F63
:1026C80008D1BDF9143023B1BDF914305B1EADF843
:1026D800143015E0BDF8163003F40C639BB2B3F563
:1026E800086F0DD1BDF91430022B05DDBDF914308A
:1026F8009B1EADF8143003E000231BB2ADF8143074
:10270800BDF8163003F004039BB2002B00F0718073
:10271800BDF8163003F002039BB2B3B1BDF8163012
:1027280003F001039BB21BB12D238DF80C3002E09E
:102738002B238DF80C309DF80C303B70781CBDF9BC
:1027480028305B1CADF8283039E0BDF8163003F0AE
:1027580001039BB24BB120233B707D1CBDF928308F
:102768005B1CADF828302B4628E0BDF8163003F482
:102778000C639BB2B3F5086F1ED130233B70781CF5
:10278800BDF928305B1CADF82830BDF8163003F0D1
:1027980020039BB21BB158238DF80D3002E078233B
:1027A8008DF80D309DF80D300370451CBDF92830AB
:1027B8005B1CADF8283000E03D462B461846BDF9B5
:1027C8001430A3B100E0584630230370431C9B46E5
:1027D800BDF928305B1CADF82830BDF914305B1EFC
:1027E8001BB2ADF81430002BEDD15C4600E0044676
:1027F80089E0BDF91430C3B1BDF8163003F0080301
:102808009BB2ABB93846FFE720230370401CBDF9E3
:1028180028305B1CADF82830BDF914305B1E1BB2A4
:10282800ADF81430002BEFD100E038460746FFE73B
:10283800BDF8163003F002039BB2BBB1BDF81630E9
:1028480003F001039BB21BB12D238DF80E3002E07B
:102858002B238DF80E309DF80E303B707F1CBDF990
:1028680028305B1CADF82830384610E0BDF816302B
:1028780003F001039BB24BB120233B70781CBDF9D8
:1028880028305B1CADF828300746FFE73846BDF80E
:10289800163003F40C639BB2B3F5046F09D13023EF
:1028A8000370451CBDF928305B1CADF828302C4658
:1028B80029E0BDF8163003F40C639BB2B3F5086F3A
:1028C8001FD130230370401CBDF928305B1CADF8C4
:1028D8002830BDF8163003F020039BB21BB15823F3
:1028E8008DF80F3002E078238DF80F309DF80F3007
:1028F8000370401CBDF928305B1CADF82830054634
:1029080000E005462C4621469DF81240BDF91030DE
:10291800A3420ADD30230B704B1C1C46BDF928303E
:102928005B1CADF828302146EEE7BDF91040BDF933
:1029380010305B1EADF81030002C00F06A80BDF836
:10294800163003F0C003DEB250E0BDF910309C0031
:10295800104B1B191C68089BB3FBF4F50A24B5FB44
:10296800F4F304FB135330338DF8123046E0BDF80E
:10297800163003F020039BB2C3B1BDF910309C00A0
:10298800054B1B191C68089BB3FBF4F303F00F04F9
:1029980000F006B8BC390000E43900008C390000AA
:1029A800314B1B191B788DF812300FE0BDF9103030
:1029B8009C002E4B1B191C68089BB3FBF4F303F017
:1029C8000F042B4B1B191B788DF8123016E0BDF93C
:1029D80010309C00274B1B191C68089BB3FBF4F3B1
:1029E80003F0070330338DF8123007E0002EACD027
:1029F800C02EAAD0802EBAD0402EE8D09DF8123032
:102A08000B70481CBDF928305B1CADF82830014616
:102A18008BE7BDF8163003F008039BB2C3B1BDF9CC
:102A28001430002B16DD0846FFE720230370431CF3
:102A38001846BDF928305B1CADF82830BDF91430B4
:102A48005B1E1BB2ADF81430002BEED1024600E03D
:102A58000A4600E00A46FEF7A5BDBDF92800DDF8E4
:102A680000E00FB0704700BF153A0000E4390000DD
:082A7800043A00008C39000053
:100CC00081B0392803D8302801D3012100E0002168
:060CD000C8B201B070473C
:100C580081B010B5904208BF2AE040EA02044FEA8A
:100C68004404002C08BF23E0440004D1944201D47A
:100C7800A41C012C1CE04FEA40044FEA1464FF2C2A
:100C88000AD14FEA42044FEA1464FF2C04D14FEA18
:100C9800D274B4EBD0340BE0002A06D4002802DC6E
:100CA8000024012C04E0904202E0002848BF824260
:080CB800BDE8104001B07047D7
:100D200081B0CDF800E04FFA80F8B8F1000F58DA42
:100D3000C8F100014FFA81F849B26E292DDB642118
:100D400049B298FBF1F149B2123109B28A00514916
:100D500089180B68642149B298FBF1F201FB1282F9
:100D600052B20A2149B292FBF1F149B2093109B2FA
:100D70008A004849891808681A4600F083F90A224F
:100D800052B298FBF2F102FB118149B28A0041494B
:100D900089180A6800F076F977E0B8F10A0F19DDD2
:100DA0000A2149B298FBF1F149B2093109B28A002E
:100DB000384989180B680A2252B298FBF2F102FBFB
:100DC000118149B28A003349891808681A4600F02F
:100DD00059F95AE04FEA88022E49891809680846ED
:100DE00053E0B8F16E0F2DDB642149B298FBF1F1AD
:100DF00049B2123109B28A00274989180B68642167
:100E000049B298FBF1F201FB128252B20A2149B2B7
:100E100092FBF1F149B2093109B28A001E498918E1
:100E200008681A4600F02EF90A2252B298FBF2F135
:100E300002FB118149B28A00174989180A6800F03B
:100E400021F922E0B8F10A0F19DD0A2149B298FB15
:100E5000F1F149B2093109B28A000F4989180B68CA
:100E60000A2252B298FBF2F102FB118149B28A00C8
:100E70000949891808681A4600F004F905E04FEAA4
:100E800088020549891809680846DDF800E001B0C4
:0C0E9000704700BF2439000058390000F2
:100CD80081B0CDF800E002B5002802D5FFF718FB77
:100CE80013E04FEA40014FEA11617F393CBF4FF0F2
:100CF80000000AE0D1F11F0105D34FEA002040F0BF
:100D08000040C84001E00020401EBDE80240DDF878
:060D180000E001B070478D
:1003180081B006B54FEA40024FEA12627F3A44BF05
:100328004FF0000011E0D2F11F0209D94FEA002175
:1003380041F00041D14000284CBF4842084604E043
:1003480000284FF0004058BF401EBDE8064001B0ED
:020358007047EC
:1010580081B0002808BF0FE002B54FF09E0202D40D
:10106800521E4000FCD580302CBF521C4000400A64
:0C10780040EAC250BDE8024001B07047E1
:10069C0081B02DE9FA414FEA02244FEA42052D0EB2
:1006AC0004D1002C18BF4FF000006CE044F0004463
:1006BC00FF2D5FD04FEA9404002A48BF64424FEAF2
:1006CC0000214FEA40031B0E05D1002914BF4FF047
:1006DC000000104657E041F00041FF2B4BD04FEA91
:1006EC009101002848BF49425E1B41BF0F4621467D
:1006FC003C46764248BF2B46192E47BF44FA06F7B4
:10070C00C9194FF0000803E0C6F11C0704FA07F8FA
:10071C00002904BF4FF0000035E046BF49424FF0BE
:10072C0001074FF00007A3F101034900FBD511F0BD
:10073C0080040DD001F0200548EA0508803128BF5F
:10074C005B1C01F0400458EA040808BF21F48071D6
:10075C009B1CDCBF4FF0000015E0FF2B0DD221F0ED
:10076C00FF014FEA41014FEA512040EAC35040EAF1
:10077C00C77008E010464FEAD0774FEAC777FF20E2
:0E078C004FEAC0503843BDE8FA4101B0704753
:10079C0081B0CDF800E05FFA80F8B8F16E0F2CD381
:1007AC006421B8FBF1F1C9B2123109B28A002849AF
:1007BC0089180A684FF07C5000F05EFC6421B8FB8D
:1007CC00F1F201FB1282D2B20A21B2FBF1F1C9B2F1
:1007DC00093109B28A001E4989180A6800F04CFCDC
:1007EC000A22B8FBF2F102FB1181C9B28A00184946
:1007FC0089180A6800F040FC26E0B8F10A0F1AD9F3
:10080C000A21B8FBF1F1C9B2093109B28A001049C9
:10081C0089180A684FF07C5000F02EFC0A22B8FBB5
:10082C00F2F102FB1181C9B28A00094989180A68E0
:10083C0000F022FC08E04FEA8802054989180A6892
:10084C004FF07C5000F018FCDDF800E001B0704770
:04085C00243900003B
:102EC40081B003461A780AB15B1CFBE71C465A1C06
:102ED40015460B464A1C11461A78227022780AB10C
:082EE4002B46F3E701B0704733
:102F280083B0CDF800E000220178CBB2D9B271B1FC
:102F380001908DF80820C8B2FEF7F2FA9DF8082033
:102F48000198511CC9B2CAB241180978EFE7DDF8F7
:062F580000E003B0704729
:1015280081B0CDF800E0034C2468A047DDF800E066
:0815380001B0704754000020CF
:102EEC0081B04FF000094FF0000CBDEB0A0F04DC71
:102EFC00BDEB0B0F01DBD446EA464BF8049BBBEB56
:102F0C000A0FFAD1BCEB0A0F05DDE246D9F800B086
:0A2F1C000BF1040BF1E701B0704760
:10370C0081B0134A134B02F0010068B912480168EA
:10371C006FF0010001401048016040F6D507C0F27F
:10372C0002077F1EFDD100BF6FF0020002EA00010C
:10373C00094801600948036040F21007C0F2000715
:10374C007F1EFDD100BF0448026001B0704700BF6E
:10375C00803BC001002800C160E00F4070E00F40CA
:00376C005D
:1034BC0081B002490248016001B0704780380100B8
:0434CC004800002094
:1034080081B0012676B2214A1660214A1660214A07
:10341800166000256DB2204C2560204A13686FF4B1
:10342800707213401D4A136000F00F0293011B4A8B
:10343800126842EA0303194A1360194A13686FF0C5
:1034480070021340164A1360164A1560144A13682E
:103458006FF0FC521340124A136001F03F02D3058B
:103468000F4A126842EA03030D4A136026600E4BA6
:103478001A6802B9FBE701235BB2044A1360002310
:103488005BB2034A136001B0704700BF180BFC43DE
:103498002C0EFC437C0EFC43580CFC4360E00F40B0
:0C34A80070E00F40340EFC43180AFC4397
:0834B40081B0FEE701B0704792
:103A4C0000B5DFF814B0DFF814A0DFF814C0FFF7EE
:103A5C004DF800BD704700BF000000200C00002096
:043A6C00263A0000F6
:103ACC0000B5DFF810B0DFF810A0FFF709FA00BD61
:0C3ADC00704700BF0000002064000020C4
:10376C000040004001004005010000000040004006
:10377C0002004005010000000000000000000000F5
:10378C00000000000000000000000000000000002D
:10379C00000000000000000000000000000000001D
:1037AC00000000000000000000000000000000000D
:1037BC0000000000000000000000000000000000FD
:1037CC0000000000000000000000000000000000ED
:1037DC0000000000000000000000000000000000DD
:1037EC0000000000000000000000000000000000CD
:1037FC0000000000000000000000000000000000BD
:10380C0000000000000000000000000000000000AC
:10381C00000000000000000000000000000000009C
:10382C00000000000000000000000000000000008C
:0C383C000000000000000000020000007E
:103848000040004004004005010000000040004026
:103858001000400501000000004000402000400525
:10386800010000000000000000000000000000004F
:103878000000000000000000000000000000000040
:103888000000000000000000000000000000000030
:103898000000000000000000000000000000000020
:1038A8000000000000000000000000000000000010
:1038B8000000000000000000000000000000000000
:1038C80000000000000000000000000000000000F0
:1038D80000000000000000000000000000000000E0
:1038E80000000000000000000000000000000000D0
:1038F80000000000000000000000000000000000C0
:1039080000000000000000000000000000000000AF
:0C391800000000000000000003000000A0
:103924000000803FCDCCCC3D0AD7233C6F12833AB4
:1039340017B7D138ACC52737BD37863595BFD633D1
:1039440077CC2B325F708930FFE6DB2E08E53C1E16
:043954006042A20D1E
:103958000000803F000020410000C84200007A4477
:1039680000401C460050C347002474498096184BF9
:1039780020BCBE4C286B6E4EF9021550EC78AD6039
:04398800CAF24971C5
:10398C0001000000080000004000000000020000E0
:10399C000010000000800000000004000000200067
:1039AC0000000001000000080000004000000000C2
:1039BC00010000000A00000064000000E8030000A1
:1039CC0010270000A086010040420F00809698004E
:0839DC0000E1F50500CA9A3B69
:1039E40001000000100000000001000000100000B1
:1039F40000000100000010000000000100000010A1
:103A04003031323334353637383961626364656650
:103A14000030313233343536373839414243444546
:023A240046005A
:023A26002C0072
:0A3A28000D0A00286E756C6C290071
:043A3400FFFFFF7F12
:043A3800000000008A
:023A3C00020086
:063A3E0000252E32660097
:053A4400252E32660092
:00000001FF
